:100000000C942A000C9447000C9447000C94470071
:100010000C9447000C9447000C9447000C94470044
:100020000C9447000C9447000C9447000C94470034
:100030000C9447000C9447000C9447000C94470024
:100040000C9447000C9447000C9447000C94470014
:100050000C94470011241FBECFE5D8E0DEBFCDBF12
:1000600010E0A0E6B0E0E6E9FBE002C005900D92EA
:10007000A036B107D9F710E0A0E6B0E001C01D92AC
:10008000A036B107E1F70E94A0050C94C9050C94B5
:1000900000009AB39F3F29F4883319F46632710542
:1000A00041F09AB39F3F41F4873331F466327105D2
:1000B00019F48FEF8BBB08959AB39F3F29F48833CF
:1000C00019F46732710541F09AB39F3F39F48733D1
:1000D00029F46732710511F41BBA08959AB3992374
:1000E00029F4883319F46632710541F09AB39923E3
:1000F00041F4873331F46632710519F48FEF89BB0F
:1001000008959AB3992329F4883319F46732710555
:1001100041F09AB3992339F4873329F46732710592
:1001200011F419BA089597B39F3F29F48A3319F44B
:100130006632710541F097B39F3F41F4893331F442
:100140006632710519F48FEF88BB089597B39F3F0E
:1001500029F48A3319F46732710541F097B39F3F50
:1001600039F4893329F46732710511F418BA089506
:1001700097B3992329F48A3319F46632710541F053
:1001800097B3992341F4893331F46632710519F438
:100190008FEF86BB089597B3992329F48A3319F416
:1001A0006732710541F097B3992339F4893329F403
:1001B0006732710511F416BA089594B39F3F29F47C
:1001C0008E3319F46632710541F094B39F3F41F4C8
:1001D0008D3331F46632710519F48FEF85BB0895C4
:1001E00094B39F3F29F48E3319F46732710541F0BF
:1001F00094B39F3F39F48D3329F46732710511F4BC
:1002000015BA089594B3992329F48E3319F46632FC
:10021000710541F094B3992341F48D3331F4663282
:10022000710519F48FEF83BB089594B3992329F4D2
:100230008E3319F46732710541F094B3992339F480
:100240008D3329F46732710511F413BA089591B30F
:100250009F3F29F48C3319F46632710541F091B354
:100260009F3F41F48B3331F46632710519F48FEFFF
:1002700082BB089591B39F3F29F48C3319F4673200
:10028000710541F091B39F3F39F48B3329F4673204
:10029000710511F412BA089591B3992329F48C339E
:1002A00019F46632710541F091B3992341F48B330F
:1002B00031F46632710519F48FEF80BB089591B364
:1002C000992329F48C3319F46732710541F091B305
:1002D000992331F48B3321F46732710509F410BA94
:1002E0000895982F9753923048F46C3119F48FEF9A
:1002F0008ABB08956B3111F41ABA0895982F995357
:10030000923048F46C3119F48FEF87BB08956B314C
:1003100011F417BA0895982F9D53923048F46C3118
:1003200019F48FEF84BB08956B3111F414BA08955A
:100330008B53823040F46C3119F48FEF81BB0895F8
:100340006B3109F411BA0895962F9753923008F043
:100350006EC02AB330E0082E02C0359527950A9466
:10036000E2F720FF10C04632510569F44BB321E09B
:1003700030E0B90102C0660F771F8A95E2F7CB0122
:10038000842B8BBB08952AB330E0082E02C035952C
:1003900027950A94E2F720FF11C04732510571F406
:1003A0004BB321E030E0B90102C0660F771F8A9598
:1003B000E2F7CB01809584238BBB08952AB330E00C
:1003C00020953095082E02C0359527950A94E2F7BE
:1003D00020FF10C04632510569F449B321E030E0F6
:1003E000B90102C0660F771F8A95E2F7CB01842B13
:1003F00089BB08952AB330E020953095082E02C0BD
:10040000359527950A94E2F720FF11C04732510530
:1004100071F449B321E030E0B90102C0660F771FE3
:100420008A95E2F7CB018095842389BB0895962FA6
:100430009953923008F06EC027B330E0082E02C006
:10044000359527950A94E2F720FF10C046325105F2
:1004500069F448B321E030E0B90102C0660F771FAC
:100460008A95E2F7CB01842B88BB089527B330E04F
:10047000082E02C0359527950A94E2F720FF11C097
:100480004732510571F448B321E030E0B90102C0B0
:10049000660F771F8A95E2F7CB018095842388BB8E
:1004A000089527B330E020953095082E02C0359589
:1004B00027950A94E2F720FF10C04632510569F4EF
:1004C00046B321E030E0B90102C0660F771F8A957C
:1004D000E2F7CB01842B86BB089527B330E020954B
:1004E0003095082E02C0359527950A94E2F720FF33
:1004F00011C04732510571F446B321E030E0B90133
:1005000002C0660F771F8A95E2F7CB01809584239E
:1005100086BB0895962F9D53923008F06EC024B389
:1005200030E0082E02C0359527950A94E2F720FFA7
:1005300010C04632510569F445B321E030E0B901FD
:1005400002C0660F771F8A95E2F7CB01842B85BB2B
:10055000089524B330E0082E02C0359527950A94FB
:10056000E2F720FF11C04732510571F445B321E095
:1005700030E0B90102C0660F771F8A95E2F7CB0120
:100580008095842385BB089524B330E02095309571
:10059000082E02C0359527950A94E2F720FF10C077
:1005A0004632510569F443B321E030E0B90102C09D
:1005B000660F771F8A95E2F7CB01842B83BB0895E2
:1005C00024B330E020953095082E02C0359527954C
:1005D0000A94E2F720FF11C04732510571F443B38A
:1005E00021E030E0B90102C0660F771F8A95E2F77B
:1005F000CB018095842383BB08956B53623008F050
:100600006DC021B330E0082E02C0359527950A94BD
:10061000E2F720FF10C04632510569F442B321E0F1
:1006200030E0B90102C0660F771F8A95E2F7CB016F
:10063000842B82BB089521B330E0082E02C035958B
:1006400027950A94E2F720FF11C04732510571F453
:1006500042B321E030E0B90102C0660F771F8A95EE
:10066000E2F7CB018095842382BB089521B330E06B
:1006700020953095082E02C0359527950A94E2F70B
:1006800020FF10C04632510569F440B321E030E04C
:10069000B90102C0660F771F8A95E2F7CB01842B60
:1006A00080BB089521B330E020953095082E02C01C
:1006B000359527950A94E2F720FF10C0473251057F
:1006C00069F440B321E030E0B90102C0660F771F42
:1006D0008A95E2F7CB018095842380BB0895962FFD
:1006E00097539230F8F44C3169F44AB321E030E08A
:1006F000B90102C0660F771F8A95E2F7CB01842B00
:100700008ABB08954B3171F44AB321E030E0B9015E
:1007100002C0660F771F8A95E2F7CB01809584238C
:100720008ABB0895962F99539230F8F44C3169F4AE
:1007300047B321E030E0B90102C0660F771F8A9508
:10074000E2F7CB01842B87BB08954B3171F447B39B
:1007500021E030E0B90102C0660F771F8A95E2F709
:10076000CB018095842387BB0895962F9D539230AB
:10077000F8F44C3169F444B321E030E0B90102C02F
:10078000660F771F8A95E2F7CB01842B84BB08950F
:100790004B3171F444B321E030E0B90102C0660F7F
:1007A000771F8A95E2F7CB018095842384BB089557
:1007B0006B536230F0F44C3169F441B321E030E026
:1007C000B90102C0660F771F8A95E2F7CB01842B2F
:1007D00081BB08954B3169F441B321E030E0B901A8
:1007E00002C0660F771F8A95E2F7CB0180958423BC
:1007F00081BB0895962F9753923008F058C02AB3C2
:1008000030E0082E02C0359527950A94E2F720FFC4
:100810000AC02BB330E0082E02C0359527950A9404
:10082000E2F720FD5BC12AB330E0082E02C0359507
:1008300027950A94E2F720FF0CC02BB330E02095F7
:100840003095082E02C0359527950A94E2F720FDD1
:1008500048C12AB330E020953095082E02C0359566
:1008600027950A94E2F720FF0AC029B330E0082E4A
:1008700002C0359527950A94E2F720FD35C12AB3C9
:1008800030E020953095082E02C0359527950A94C2
:10089000E2F720FF0CC029B330E020953095082EF8
:1008A00002C0359527950A94E2F720FD20C1962FC6
:1008B0009953923008F058C027B330E0082E02C098
:1008C000359527950A94E2F720FF0AC028B330E057
:1008D000082E02C0359527950A94E2F720FD0AC13B
:1008E00027B330E0082E02C0359527950A94E2F729
:1008F00020FF0CC028B330E020953095082E02C0B0
:10090000359527950A94E2F720FDF7C027B330E02C
:1009100020953095082E02C0359527950A94E2F768
:1009200020FF0AC026B330E0082E02C03595279577
:100930000A94E2F720FDE4C027B330E0209530951B
:10094000082E02C0359527950A94E2F720FF0CC0C7
:1009500026B330E020953095082E02C035952795B6
:100960000A94E2F720FDCFC0962F9D53923008F0F5
:1009700058C024B330E0082E02C0359527950A945C
:10098000E2F720FF0AC025B330E0082E02C03595FB
:1009900027950A94E2F720FDB9C024B330E0082E71
:1009A00002C0359527950A94E2F720FF0CC025B3C5
:1009B00030E020953095082E02C0359527950A9491
:1009C000E2F720FDA6C024B330E020953095082E34
:1009D00002C0359527950A94E2F720FF0AC023B399
:1009E00030E0082E02C0359527950A94E2F720FDE5
:1009F00093C024B330E020953095082E02C0359581
:100A000027950A94E2F720FF0CC023B330E020952D
:100A10003095082E02C0359527950A94E2F720FDFF
:100A20007EC06B53623008F058C021B330E0082E0E
:100A300002C0359527950A94E2F720FF0AC022B339
:100A400030E0082E02C0359527950A94E2F720FD84
:100A500069C021B330E0082E02C0359527950A946D
:100A6000E2F720FF0CC022B330E020953095082E2D
:100A700002C0359527950A94E2F720FD56C021B3B0
:100A800030E020953095082E02C0359527950A94C0
:100A9000E2F720FF0AC020B330E0082E02C03595EF
:100AA00027950A94E2F720FD43C021B330E020955A
:100AB0003095082E02C0359527950A94E2F720FF5D
:100AC0000CC020B330E020953095A90102C05595A7
:100AD00047958A95E2F740FD2EC0089521E030E069
:100AE0002CC020E030E029C021E030E026C020E02A
:100AF00030E023C021E030E020C020E030E01DC025
:100B000021E030E01AC020E030E017C021E030E002
:100B100014C020E030E011C021E030E00EC020E041
:100B200030E00BC021E030E008C020E030E005C03C
:100B300021E030E002C020E030E0822F932F0895C2
:100B400088E36CE10E94710183E090E06CE34BE18B
:100B50000E946F0383E090E06CE347E250E00E9464
:100B6000A40188E367E270E00E94490082E090E01F
:100B70006CE30E94FA03009731F088E366E270E0CC
:100B80000E944900F3CF88E367E270E00E944900C9
:060B9000EDCFF894FFCF49
:00000001FF
